{
    "contractName": "Contest",
    "abi": [
        {
            "inputs": [],
            "payable": false,
            "stateMutability": "nonpayable",
            "type": "constructor"
        },
        {
            "anonymous": false,
            "inputs": [
                {
                    "indexed": true,
                    "internalType": "uint256",
                    "name": "_contestantId",
                    "type": "uint256"
                }
            ],
            "name": "votedEvent",
            "type": "event"
        },
        {
            "constant": true,
            "inputs": [],
            "name": "contestantCount",
            "outputs": [
                {
                    "internalType": "uint256",
                    "name": "",
                    "type": "uint256"
                }
            ],
            "payable": false,
            "stateMutability": "view",
            "type": "function"
        },
        {
            "constant": true,
            "inputs": [
                {
                    "internalType": "uint256",
                    "name": "",
                    "type": "uint256"
                }
            ],
            "name": "contestants",
            "outputs": [
                {
                    "internalType": "uint256",
                    "name": "id",
                    "type": "uint256"
                },
                {
                    "internalType": "string",
                    "name": "name",
                    "type": "string"
                },
                {
                    "internalType": "uint256",
                    "name": "voteCount",
                    "type": "uint256"
                }
            ],
            "payable": false,
            "stateMutability": "view",
            "type": "function"
        },
        {
            "constant": true,
            "inputs": [
                {
                    "internalType": "address",
                    "name": "",
                    "type": "address"
                }
            ],
            "name": "voters",
            "outputs": [
                {
                    "internalType": "bool",
                    "name": "",
                    "type": "bool"
                }
            ],
            "payable": false,
            "stateMutability": "view",
            "type": "function"
        },
        {
            "constant": false,
            "inputs": [
                {
                    "internalType": "uint256",
                    "name": "_contestantId",
                    "type": "uint256"
                }
            ],
            "name": "vote",
            "outputs": [],
            "payable": false,
            "stateMutability": "nonpayable",
            "type": "function"
        }
    ],
    "bytecode": "0x608060405234801561001057600080fd5b506100556040518060400160405280600381526020017f546f6d000000000000000000000000000000000000000000000000000000000081525061009e60201b60201c565b6100996040518060400160405280600581526020017f4a6572727900000000000000000000000000000000000000000000000000000081525061009e60201b60201c565b6101be565b6002600081548092919060010191905055506040518060600160405280600254815260200182815260200160008152506000806002548152602001908152602001600020600082015181600001556020820151816001019080519060200190610108929190610119565b506040820151816002015590505050565b828054600181600116156101000203166002900490600052602060002090601f016020900481019282601f1061015a57805160ff1916838001178555610188565b82800160010185558215610188579182015b8281111561018757825182559160200191906001019061016c565b5b5090506101959190610199565b5090565b6101bb91905b808211156101b757600081600090555060010161019f565b5090565b90565b6103e9806101cd6000396000f3fe608060405234801561001057600080fd5b506004361061004c5760003560e01c80630121b93f14610051578063613711c21461007f578063a3ec138d1461009d578063dfd50f52146100f9575b600080fd5b61007d6004803603602081101561006757600080fd5b81019080803590602001909291905050506101ae565b005b6100876102cc565b6040518082815260200191505060405180910390f35b6100df600480360360208110156100b357600080fd5b81019080803573ffffffffffffffffffffffffffffffffffffffff1690602001909291905050506102d2565b604051808215151515815260200191505060405180910390f35b6101256004803603602081101561010f57600080fd5b81019080803590602001909291905050506102f2565b6040518084815260200180602001838152602001828103825284818151815260200191508051906020019080838360005b83811015610171578082015181840152602081019050610156565b50505050905090810190601f16801561019e5780820380516001836020036101000a031916815260200191505b5094505050505060405180910390f35b600160003373ffffffffffffffffffffffffffffffffffffffff1673ffffffffffffffffffffffffffffffffffffffff16815260200190815260200160002060009054906101000a900460ff161561020557600080fd5b60008111801561021757506002548111155b61022057600080fd5b6000808281526020019081526020016000206002016000815480929190600101919050555060018060003373ffffffffffffffffffffffffffffffffffffffff1673ffffffffffffffffffffffffffffffffffffffff16815260200190815260200160002060006101000a81548160ff021916908315150217905550807ffff3c900d938d21d0990d786e819f29b8d05c1ef587b462b939609625b684b1660405160405180910390a250565b60025481565b60016020528060005260406000206000915054906101000a900460ff1681565b6000602052806000526040600020600091509050806000015490806001018054600181600116156101000203166002900480601f0160208091040260200160405190810160405280929190818152602001828054600181600116156101000203166002900480156103a45780601f10610379576101008083540402835291602001916103a4565b820191906000526020600020905b81548152906001019060200180831161038757829003601f168201915b505050505090806002015490508356fea265627a7a72315820c6cfd55cde6ef1e3f91ae8eb5893ce0020b90572a5589c1f7abfc0531713d96364736f6c63430005100032",
    "source": "pragma solidity 0.5.16;\r\n\r\ncontract Contest{\r\n\r\n   // creating structure to model the contestant\r\n\r\n   struct Contestant{\r\n\r\n   \tuint id;\r\n   \tstring name;\r\n   \tuint voteCount;\r\n   }\r\n\r\n   // use mapping to get or fetch contestant details\r\n\r\n   mapping(uint=>Contestant) public contestants;\r\n\r\n   // add a public state variable to keep track of contestant count\r\n\r\n   mapping(address=>bool) public voters;\r\n   uint public contestantCount;\r\n\r\n    event votedEvent(\r\n      uint indexed _contestantId\r\n   );\r\n\r\n   // add a function to add contestant\r\n\r\n   constructor() public{\r\n   \taddContestant(\"Tom\");\r\n   \taddContestant(\"Jerry\");\r\n   }\r\n\r\n   function addContestant(string memory _name) private{\r\n   \tcontestantCount++;\r\n   \tcontestants[contestantCount]=Contestant(contestantCount,_name,0);\r\n   }\r\n\r\n   function vote(uint _contestantId)public{\r\n\r\n      require(!voters[msg.sender]);\r\n\r\n      // require that vote is casted to contestant\r\n\r\n      require(_contestantId>0&&_contestantId<=contestantCount);\r\n      contestants[_contestantId].voteCount++;\r\n      voters[msg.sender]=true;\r\n\r\n       emit votedEvent(_contestantId);\r\n   }\r\n} ",
    "sourcePath": "D:\\5thsemprojects\\Blockchain\\contracts\\Contest.sol",
    "compiler": {
        "name": "solc",
        "version": "0.5.16+commit.9c3226ce.Emscripten.clang"
    },
    "schemaVersion": "3.4.4",
    "updatedAt": "2022-04-02T03:52:04.914Z",
    "networkType": "ethereum",
    "devdoc": {
        "methods": {}
    },
    "userdoc": {
        "methods": {}
    }
}